:020000040000FA
:020000001528C1
:040002000034003492
:08000800FF308312031385068B
:1000100083120313860683120313870683120313C6
:0A0020008906831203130B11090077
:06002A00831603133830B9
:100030008F00831603138501831203138501831632
:1000400003138601831203138601831603138701AA
:100050008312031387018316031389018312031389
:100060008901831603138112811101158114011472
:10007000831203138101831203130B118B168B1749
:02008000402816
:02400E00F43F7D
:02401000FF3F70
:00000001FF
